:020000040000FA
:100000003028FF3FFF3FFF3FA000A00E03088312F0
:100010000313AF000B1828288312031328142F088A
:100020008300200E090082070034013402340334B7
:10003000F134043405340634F23407340834093416
:10004000F334133400341434F43406080B100C2841
:10005000E9242E08A10021081320A100B00A2528B8
:10006000003083160313850007309F00013086009F
:100070000030870083128511851601302325323028
:1000800048258512831601178B138B1101308312BB
:10009000A500A6015D255D255D251E304825802033
:1000A00090200130A500C4208B178B152108F13A50
:1000B000031D5B283F213008013A031D5328A2216C
:1000C000F0213F08013A031D6F280130A5000D22E1
:1000D000FF30870003302325003087004F28C722D8
:1000E0003F08013A031D78280130A5008E226828B8
:1000F0000130A500CD2201302325323048254F287C
:1001000083120313B101B201B301B401B001B9010B
:10011000BA01BB01BC01A1018D28831203130800A1
:10012000DD25003003178D0083168C130C14831209
:100130000C080313B500E325DD25013003178D00FE
:1001400083168C130C1483120C080313B600E325DA
:10015000DD25023003178D0083168C130C148312D7
:100160000C080313B700E325DD25033003178D00CA
:1001700083168C130C1483120C080313B800E325A8
:10018000C12883120313080068250130831203136A
:10019000BD00D3253E1CD0280C30A4250130A42559
:1001A0008330A4254930AA256E30AA256730AA25B8
:1001B0007230AA256530AA257330AA256530AA2594
:1001C0002030AA256330AA256F30AA256430AA25DD
:1001D0006930AA256730AA256F30AA259630A42554
:1001E0004C30AA256130AA256230AA256F30AA2595
:1001F0007230AA256130AA257430AA256F30AA254D
:100200007230AA256930AA256F30AA252030AA2588
:100210002030AA256430AA256530AA25D830A42527
:100220004430AA256530AA257330AA256130AA2555
:100230007230AA257230AA256F30AA256C30AA2503
:100240006C30AA256F30AA257330AA25C830A425A2
:100250003908303EAA25C930A4253A08303EAA25DF
:10026000CA30A4253B08303EAA25CB30A4253C0843
:10027000303EAA2585253C298312031308008312EA
:1002800003138B138B1180208B178B150130A50066
:10029000C4203008013A031D4829A2219020F021F2
:1002A0003F08013A031D9329802026238B178B15C5
:1002B0002108133A031D86298B138B110030031775
:1002C0008D000313350803178C00E8250130031750
:1002D0008D000313360803178C00E825023003173E
:1002E0008D000313370803178C00E825033003172C
:1002F0008D000313380803178C00E8250130A50092
:100300006A2302302325B001A1019F292108F43A74
:10031000031D56298B138B110130A500BF2302301A
:10032000232590208329C7223F08013A0319542925
:1003300099290130A500CD2202302325832983127B
:1003400003130800831203138B138B110130A500D4
:10035000C4202108B1002830B9000130A500C42014
:100360002108F43A031DDD292108F43A031DCD29A3
:100370002108F43A031DBD29ED298B178B15300890
:10038000043A031DB8298B138B112108B4002830BF
:10039000BC000130A500C420ED298B178B15300857
:1003A000033A031DB4298B138B112108B3002830A5
:1003B000BB000130A500C420B8298B178B1530086D
:1003C000023A031DB0298B138B112108B20028308B
:1003D000BA000130A500C420B42983120313080019
:1003E000003083120313BF0035083106031D072AAE
:1003F00036083206031D072A37083306031D072A6D
:1004000038083406031D072A0130BF000A2A0030CD
:10041000BF000A2A831203130800682503308312E1
:100420000313BD00D3253E1C192A0C30A42501302E
:10043000A4258230A4254330AA256F30AA25643034
:10044000AA256930AA256730AA256F30AA25203051
:10045000AA256330AA256F30AA257230AA257230EA
:10046000AA256530AA256330AA257430AA256F30E5
:10047000AA25C530A4254230AA256930AA256530B1
:10048000AA256E30AA257630AA256530AA256E30B9
:10049000AA256930AA256430AA256F30AA2596308E
:1004A000A4254C30AA256130AA256230AA256F30D8
:1004B000AA257230AA256130AA257430AA256F308A
:1004C000AA257230AA256930AA256F30AA252030C6
:1004D000AA252030AA252030AA256430AA25653017
:1004E000AA25D930A4254430AA256530AA25733021
:1004F000AA256130AA257230AA257230AA256F304C
:10050000AA256C30AA256C30AA256F30AA25733035
:10051000AA2585258B2A8312031308006825073036
:1005200083120313BD00D3253E1C9A2A0C30A42548
:100530000130A4258530A4254230AA254930AA25BA
:100540004530AA254E30AA255630AA254530AA2581
:100550004E30AA254930AA254430AA254F30AA2575
:10056000DA30A4254230AA255530AA254530AA25DF
:100570004E30AA252030AA254430AA254930AA2584
:100580004130AA258525C42A831203130800442478
:10059000F021CA2A8312031308006825023083124F
:1005A0000313BD00D3253E1CD92A0C30A4250130ED
:1005B000A4258330A4254330AA256F30AA256430B2
:1005C000AA256930AA256730AA256F30AA252030D0
:1005D000AA256530AA257230AA257230AA256F3067
:1005E000AA256E30AA256530AA256F30AA25943039
:1005F000A4254930AA256E30AA257430AA25653075
:10060000AA256E30AA257430AA256530AA256C303B
:10061000AA256F30AA252030AA256E30AA2575306C
:10062000AA256530AA257630AA256130AA256D3025
:10063000AA256530AA256E30AA257430AA25653012
:10064000AA258525232B8312031308008312031385
:10065000B501B601B701B8010130A50052248B17CE
:100660008B153008013A031D2F2B8B138B11013092
:10067000A50052242108B5000130A50052248B1793
:100680008B153008023A031D3F2B8B138B11210869
:10069000B6000130A50052248B178B153008033AA1
:1006A000031D4C2B8B138B112108B7000130A500C3
:1006B00052248B178B153008043A031D592B8B13CA
:1006C0008B112108B8000130A5005224672B83123A
:1006D000031308006825053083120313BD00D325DA
:1006E0003E1C762B0C30A4250130A4258430A42593
:1006F0004330AA254F30AA254430AA254930AA25DF
:100700004730AA254F30AA252030AA254E30AA25E9
:100710005530AA254530AA255630AA254F30AA259E
:10072000D930A4254730AA255230AA254130AA2520
:100730004230AA254130AA254430AA254F30AA25A7
:100740002030AA254F30AA254B30AA25C830A42531
:100750003508303EAA25C930A4253608303EAA25E2
:10076000CA30A4253708303EAA25CB30A425380846
:10077000303EAA258525BC2B83120313080068256B
:10078000063083120313BD00D3253E1CCB2B0C3047
:10079000A4250130A4258730A4254530AA25523050
:1007A000AA255230AA254F30AA255230AA25C33097
:1007B000A4254E30AA256F30AA252030AA25663000
:1007C000AA257530AA256530AA252030AA256730CC
:1007D000AA257230AA256130AA256230AA25613087
:1007E000AA256430AA256F30AA259630A425453065
:1007F000AA256C30AA252030AA256330AA256F309F
:10080000AA256430AA256930AA256730AA256F3049
:10081000AA252030AA256E30AA257530AA25653074
:10082000AA257630AA256F30AA25D430A4254930D0
:10083000AA256E30AA257430AA256530AA256E3007
:10084000AA257430AA256530AA256C30AA256F30F8
:10085000AA252030AA256E30AA257530AA25653034
:10086000AA257630AA256130AA256D30AA256530E3
:10087000AA256E30AA257430AA256530AA258525BB
:10088000412C831203130800023083120313B500B6
:100890000430B6000830B7000630B8004F2C831281
:1008A000031308006825043083120313BD00D32509
:1008B0003E1C5E2C0C30A4250130A4258030A425DC
:1008C0004930AA256E30AA256730AA257230AA259C
:1008D0006530AA257330AA256530AA252030AA25BF
:1008E0006330AA256F30AA256430AA256930AA256D
:1008F0006730AA256F30AA252030AA256E30AA2598
:100900007530AA256530AA257630AA256F30AA252C
:100910009730A4255030AA256130AA257230AA2527
:100920006130AA252030AA256330AA256F30AA2578
:100930006E30AA256630AA256930AA257230AA250C
:100940006D30AA256130AA257230AA25D430A4259D
:100950004F30AA257030AA257230AA256930AA2501
:100960006D30AA256130AA252030AA257430AA2529
:100970006530AA256330AA256C30AA256130AA25E6
:10098000E130A4257330AA256930AA252A30AA258A
:100990002030AA256E30AA256F30AA254430AA251A
:1009A000C830A4253508303EAA25C930A42536080C
:1009B000303EAA25CA30A4253708303EAA25CB30C0
:1009C000A4253808303EAA258525E62C831203137A
:1009D0000800013083120313A200A301051486143A
:1009E0000615861522180510A21886102219061160
:1009F000A21986110130AB00061E0F2DAB0A861E10
:100A00000F2DAB0A061F0F2DAB0A861F0F2DAB0A49
:100A10000430A3070310A20D221EEE2C122D230872
:100A20002B07AE003230A200051086100611861189
:100A3000061E142D861E142D061F142D861F142D20
:100A4000A20B142D0800A7002C2D000000000000B0
:100A500000000000000000000A30A90000000000B3
:100A60006330AA00000000000000C830C000000091
:100A70000000C00B372D000000000000AA0B322D33
:100A8000000000000000A90B2E2DA70B252D08004B
:100A9000A700512D00000000000000000000000031
:100AA00000001630A9009630AA00AA0B552DA90BFC
:100AB000532D0000A70B4A2D08006825A601BD0193
:100AC000053048252830A4252830A4258525080090
:100AD000831203130B08A4008B13831606128612CD
:100AE000061386138113831205150800831203135E
:100AF0000B08A4000515831606128612061386132A
:100B00008113003083128600080083160313061633
:100B10008616061786178117003083128600051186
:100B200024088B000800831603138617831286118E
:100B300006158514861B932D8611061585108316C0
:100B40008613831203130800831203130611A200F5
:100B50008611AF2D831203130611A200861585148A
:100B6000A2000612861206138613221A0616A21A6D
:100B70008616221B0617A21B861785100000000090
:100B80008514061286120613861322180616A2185A
:100B9000861622190617A219861785100000000074
:100BA00085149325080083120313BE013D08260611
:100BB000031D3E143D08A6000800831203130B0812
:100BC000C1008B1308008312031341088B00080037
:100BD000831203130B08C100DD25831603178C1342
:100BE0000C1555308D00AA308D008C148C18F62D04
:100BF0000C120C118312031341088B00E32508002B
:100C0000FF3FFF3FFF3FFF3FFF3FFF3FFF3FFF3FF4
:100C1000FF3FFF3FFF3FFF3FFF3FFF3FFF3FFF3FE4
:100C2000FF3FFF3FFF3FFF3FFF3FFF3FFF3FFF3FD4
:100C3000FF3FFF3FFF3FFF3FFF3FFF3FFF3FFF3FC4
:104200000100040007000800FF00FF00FF00FF009E
:10421000FF00FF00FF00FF00FF00FF00FF00FF00A6
:10422000FF00FF00FF00FF00FF00FF00FF00FF0096
:10423000FF00FF00FF00FF00FF00FF00FF00FF0086
:10424000FF00FF00FF00FF00FF00FF00FF00FF0076
:10425000FF00FF00FF00FF00FF00FF00FF00FF0066
:10426000FF00FF00FF00FF00FF00FF00FF00FF0056
:10427000FF00FF00FF00FF00FF00FF00FF00FF0046
:10428000FF00FF00FF00FF00FF00FF00FF00FF0036
:10429000FF00FF00FF00FF00FF00FF00FF00FF0026
:1042A000FF00FF00FF00FF00FF00FF00FF00FF0016
:1042B000FF00FF00FF00FF00FF00FF00FF00FF0006
:1042C000FF00FF00FF00FF00FF00FF00FF00FF00F6
:1042D000FF00FF00FF00FF00FF00FF00FF00FF00E6
:1042E000FF00FF00FF00FF00FF00FF00FF00FF00D6
:1042F000FF00FF00FF00FF00FF00FF00FF00FF00C6
:02400E00313D42
:08400000FF3FFF3FFF3FFF3FC0
:00000001FF
